:100000000C9434000C943E000C943E000C943E0082
:100010000C943E000C943E000C943E000C943E0068
:100020000C943E000C943E000C943E000C943E0058
:100030000C943E000C943E000C943E000C943E0048
:100040000C943E000C943E000C943E000C943E0038
:100050000C943E000C943E000C943E000C943E0028
:100060000C943E000C943E0011241FBECFEFD8E04C
:10007000DEBFCDBF0E9456000C945E000C940000C1
:10008000579A0895E1E8F0E080818560808386EFEB
:1000900092EC9093850080938400B09BFECF1092E9
:1000A00085001092840081E086BB08950E94400084
:1000B0008BB180588BB90E944200FACFF894FFCFE1
:00000001FF
