:100000000C9434000C9468000C9446000C94460048
:100010000C9446000C9446000C9446000C94460048
:100020000C9446000C9446000C9446000C94460038
:100030000C9446000C9446000C9446000C94460028
:100040000C9446000C9446000C9446000C94460018
:100050000C9446000C9446000C9446000C94460008
:100060000C9446000C94460011241FBECFEFD8E03C
:10007000DEBFCDBF21E0A0E0B1E001C01D92A33002
:10008000B207E1F70E945E000C9498000C94000007
:10009000E9E6F0E0808182608083E89A78940895B0
:1000A00084B5836084BD84B5806884BD85B5816076
:1000B00085BD089552985A9A569A08950E945A00FA
:1000C0000E9450000E9448008091000187BDFCCF33
:1000D0001F920F920FB60F9211242F938F939F931D
:1000E0002FEF89EC98E0215080409040E1F700C06C
:1000F00000008BB1809101019091020180FF04C04A
:100100008AE08093000103C08AEF80930001809110
:1001100001019091020101969093020180930101E7
:100120009F918F912F910F900FBE0F901F90189558
:04013000F894FFCF71
:00000001FF
