:100000000C9434000C943E000C943E000C943E0082
:100010000C943E000C943E000C943E000C943E0068
:100020000C943E000C943E000C943E000C943E0058
:100030000C943E000C943E000C943E000C943E0048
:100040000C943E000C943E000C943E000C943E0038
:100050000C943E000C943E000C943E000C943E0028
:100060000C943E000C943E0011241FBECFEFD8E04C
:10007000DEBFCDBF0E9447000C9456000C940000D8
:10008000579AE1E8F0E080818560808308950E94BE
:100090004000E4E8F0E0808191818A309D43D8F30C
:1000A0008BB180588BB911821082F5CFF894FFCFB5
:00000001FF
