:100000000C9434000C943E000C943E000C943E0082
:100010000C943E000C943E000C943E000C943E0068
:100020000C943E000C943E000C943E000C943E0058
:100030000C943E000C943E000C943E000C943E0048
:100040000C943E000C943E000C943E000C943E0038
:100050000C943E000C943E000C943E000C943E0028
:100060000C943E000C943E0011241FBECFEFD8E04C
:10007000DEBFCDBF0E9443000C9461000C940000D1
:10008000579A569808950E9440004E9B0DC08BB120
:1000900080588BB92FEF81EE94E021508040904042
:1000A000E1F700C00000F1CF8BB180588BB92FEF82
:1000B00089E698E1215080409040E1F700C00000BF
:0600C000E4CFF894FFCF2D
:00000001FF
