S01B00005475746F7269616C2D30392D4C6962726172792E737265631D
S11300000C9434000C943E000C943E000C943E007E
S11300100C943E000C943E000C943E000C943E0064
S11300200C943E000C943E000C943E000C943E0054
S11300300C943E000C943E000C943E000C943E0044
S11300400C943E000C943E000C944D000C943E0025
S11300500C943E000C943E000C943E000C943E0024
S11300600C943E000C943E0011241FBECFEFD8E048
S1130070DEBFCDBF0E9440000C9492000C9400009F
S11300800E94760078942FEF83ED90E32150804016
S11300909040E1F700C00000F6CF1F920F920FB618
S11300A00F9211242F933F934F935F936F937F93FA
S11300B08F939F93AF93BF93EF93FF938091C60069
S11300C00E948A008AE00E948A00FF91EF91BF910A
S11300D0AF919F918F917F916F915F914F913F91DC
S11300E02F910F900FBE0F901F90189587E6809365
S11300F0C400E1ECF0E080818860808380818061CD
S11301008083A2ECB0E08C9186608C9380818068BF
S113011080830895E0ECF0E0908195FFFDCF80931B
S10B0120C6000895F894FFCF16
S9030000FC
