:100000000C9434000C943E000C943E000C943E0082
:100010000C943E000C943E000C943E000C943E0068
:100020000C943E000C943E000C943E000C9459003D
:100030000C943E000C943E000C943E000C943E0048
:100040000C943E000C943E000C943E000C943E0038
:100050000C943E000C943E000C943E000C943E0028
:100060000C943E000C943E0011241FBECFEFD8E04C
:10007000DEBFCDBF0E9456000C9468000C940000B7
:100080007894579AE1E8F0E08081856080838081F0
:1000900088608083EFE6F0E080818260808389E081
:1000A0009DE3909389008093880008950E9440000A
:1000B000FFCF1F920F920FB60F9211248F938BB127
:1000C00080588BB98F910F900FBE0F901F9018958D
:0400D000F894FFCFD2
:00000001FF
