S01800005475746F7269616C2D30382D554152542E73726563BA
S11300000C9434000C9449000C9449000C9449005D
S11300100C9449000C9449000C9449000C94490038
S11300200C9449000C9449000C9449000C94490028
S11300300C9449000C9449000C9449000C94490018
S11300400C9449000C9449000C948A000C944900C7
S11300500C9449000C9449000C9449000C944900F8
S11300600C9449000C94490011241FBECFEFD8E032
S1130070DEBFCDBF11E0A0E0B1E0E4E6F1E002C0F4
S113008005900D92AC30B107D9F70E9476000C941C
S1130090B0000C94000087E68093C400E1ECF0E02B
S11300A0808188608083808180618083A2ECB0E05D
S11300B08C9186608C938081806880830895E0ECC5
S11300C0F0E0908195FFFDCF8093C6000895CF9313
S11300D0DF93EC018881882331F021960E945F0030
S11300E089918111FBCFDF91CF9108950E944B003C
S11300F078942FEF83ED90E3215080409040E1F716
S113010000C0000080E091E00E9467008AE00E9445
S11301105F00EFCF1F920F920FB60F9211242F930F
S11301203F934F935F936F937F938F939F93AF937B
S1130130BF93EF93FF938091C6000E945F00FF91ED
S1130140EF91BF91AF919F918F917F916F915F914B
S11301504F913F912F910F900FBE0F901F901895C4
S1070160F894FFCF3D
S10F016448454C4C4F20574F524C44006F
S9030000FC
